S00C0000485730352E7372656314
S1130000171200001302A2DA971200009382821AD8
S1130010170108001301C1FE23200200130242004D
S1130020E3FC42FEEF00501C13000000130000002C
S11300301300000073001000130000001300000000
S1130040130000006F000000130000001300000004
S11300501300000000000000130101FE232E8100A4
S113006013040102F32700C02326F4FE8327C4FEF1
S1130070138507000324C1011301010267800000F6
S1130080130101FE232E810013040102F32720C073
S11300902326F4FE8327C4FE138507000324C1012D
S11300A01301010267800000130101FD2326810270
S11300B013040103232EA4FCB717000083A7C7DA97
S11300C013870700B7170000938707DBB307F70010
S11300D02326F4FEB717000003A7C7DA8327C4FD5D
S11300E03307F700B717000023A6E7DA8327C4FE17
S11300F0138507000324C102130101036780000074
S1130100130101FE232E8100130401022326A4FE01
S11301108327C4FE83C70700638007028327C4FEC6
S1130120138717002326E4FE03C70700B70700C0A0
S113013023A0E7006FF0DFFD130000001385070024
S11301400324C1011301010267800000130101FEB1
S1130150232E8100130401022326A4FEB70700C046
S11301600327C4FE23A0E700130000000324C101F9
S11301701301010267800000130101FE232E810098
S1130180130401022326A4FE8327C4FE83C70700A9
S1130190638007028327C4FE138717002326E4FE27
S11301A003C70700B70700C023A0E7006FF0DFFD17
S11301B0130000000324C101130101026780000041
S11301C0130101FB232611042324810413040105D4
S11301D0232EA4FA9307C4FC2326F4FE8327C4FB2E
S11301E063DC07001305D002EFF05FF68327C4FB3E
S11301F0B307F040232EF4FA8327C4FB6398070067
S11302009307C4FC0327C4FE6310F7040327C4FB4D
S11302109307A000B367F70213F7F70F8327C4FE11
S1130220938617002326D4FE130707031377F70FCB
S11302302380E7000327C4FB9307A000B347F7021A
S1130240232EF4FA6FF05FFB9307C4FC0327C4FE6C
S11302506302F7028327C4FE9387F7FF2326F4FE85
S11302608327C4FE83C7070013850700EFF01FEE42
S11302706FF09FFD130000008320C1040324810458
S11302801301010567800000130101FB23261102FD
S11302902324810213040103232EA4FC2322B4008B
S11302A02324C4002326D4002328E400232AF400B2
S11302B0232C0401232E140193070402938747FE81
S11302C02324F4FE232604FE8327C4FE0327C4FD4F
S11302D0B307F70083C70700638407108327C4FEAE
S11302E00327C4FDB307F70003C7070093075002B1
S11302F06314F70C8327C4FE938717002326F4FEA8
S11303008327C4FE0327C4FDB307F70083C7070090
S1130310B337F00093F7F70F638C070A8327C4FE03
S11303200327C4FDB307F70003C70700930730068C
S11303306310F702832784FE138747002324E4FE17
S113034083A7070013850700EFF05FE06F00400804
S11303508327C4FE0327C4FDB307F70003C70700C0
S1130360930730076310F702832784FE138747003F
S11303702324E4FE83A7070013850700EFF0DFDFE3
S11303806F0000058327C4FE0327C4FDB307F700ED
S113039003C7070093074006E31EF7F4832784FE90
S11303A0138747002324E4FE83A70700138507006F
S11303B0EFF01FE16F00C0018327C4FE0327C4FDD3
S11303C0B307F70083C7070013850700EFF01FD8B2
S11303D08327C4FE938717002326F4FE6FF0DFEE15
S11303E013000000138507008320C1020324810247
S11303F01301010567800000130101FD232681021A
S113040013040103232EA4FC232CB4FC232AC4FCD0
S11304108327C4FD2326F4FE832784FD2324F4FECE
S1130420832744FD1387F7FF232AE4FCB337F00046
S113043093F7F70F63840702032784FE93071700DB
S11304402324F4FE8327C4FE938617002326D4FEB8
S1130450034707002380E7006FF09FFC8327C4FD58
S1130460138507000324C102130101036780000000
S1130470130101FD2326810213040103232EA4FC8E
S1130480232CB4FC8327C4FD2326F4FE0327C4FDD8
S1130490832784FDB367F70093F73700638E070261
S11304A0832784FD13871700232CE4FC83C70700EC
S11304B0A305F4FE8327C4FD13871700232EE4FC51
S11304C00347B4FE2380E7008347B4FEE39007FCB0
S11304D08327C4FE6F00C011832784FD83A7070010
S11304E02322F4FE032744FEB707FFFE9387F7EFAA
S11304F03307F700832744FE93C7F7FFB377F7006A
S113050013870700B787808093870708B377F700BE
S1130510638C070A832744FE13F7F70F8327C4FD70
S11305202380E700832744FE93F7F70F63960700C1
S11305308327C4FE6F00C00B832744FE93D7870034
S11305402322F4FE032744FE8327C4FD9387170068
S11305501377F70F2380E700832744FE93F7F70F01
S1130560639607008327C4FE6F008008832744FE38
S113057093D787002322F4FE032744FE8327C4FD78
S1130580938727001377F70F2380E700832744FE20
S113059093F7F70F639607008327C4FE6F004005A7
S11305A0832744FE93D787002322F4FE032744FEC7
S11305B08327C4FD938737001377F70F2380E70061
S11305C08327C4FE6F00C002032744FE8327C4FDB3
S11305D023A0E700832784FD93874700232CF4FCA2
S11305E08327C4FD93874700232EF4FC6FF0DFEECE
S11305F0138507000324C10213010103678000006F
S1130600130101FD2326810213040103232EA4FCFC
S1130610232CB4FC0327C4FD832784FDB367F700B0
S113062093F73700638207068327C4FD13871700F7
S1130630232EE4FC83C70700A307F4FE832784FD6D
S113064013871700232CE4FC83C707002307F4FE59
S11306500347F4FE8347E4FE6300F7020347F4FE16
S11306608347E4FE6376F7009307F0FF6F000020F2
S1130670930710006F00801F8347F4FEE39C07F884
S1130680930700006F00801E8327C4FD83A7070023
S11306902320F4FE832784FD83A707002324F4FE8C
S11306A0832704FE032784FEB307F740B337F00023
S11306B093F7F70F63820716832704FEA303F4FE60
S11306C0832784FE2303F4FE034774FE834764FEFA
S11306D06300F702034774FE834764FE6376F70002
S11306E09307F0FF6F008018930710006F00001845
S11306F0834774FE63960700930700006F0000179A
S1130700832704FE93D787002320F4FE832784FEE7
S113071093D787002324F4FE832704FEA303F4FE67
S1130720832784FE2303F4FE034774FE834764FE99
S11307306300F702034774FE834764FE6376F700A1
S11307409307F0FF6F008012930710006F000012F0
S1130750834774FE63960700930700006F0000113F
S1130760832704FE93D787002320F4FE832784FE87
S113077093D787002324F4FE832704FEA303F4FE07
S1130780832784FE2303F4FE034774FE834764FE39
S11307906300F702034774FE834764FE6376F70041
S11307A09307F0FF6F00800C930710006F00000C9C
S11307B0834774FE63960700930700006F00000BE5
S11307C0832704FE93D787002320F4FE832784FE27
S11307D093D787002324F4FE832704FEA303F4FEA7
S11307E0832784FE2303F4FE034774FE834764FED9
S11307F06300F702034774FE834764FE6376F700E1
S11308009307F0FF6F008006930710006F00000647
S1130810930700006F008005032704FEB707FFFE5F
S11308209387F7EF3307F700832704FE93C7F7FF97
S1130830B377F70013870700B7878080938707088B
S1130840B377F70063860700930700006F00000288
S11308508327C4FD93874700232EF4FC832784FD5C
S113086093874700232CF4FC6FF01FE213850700E5
S11308700324C1021301010367800000000000008B
S1130880130101FD2326810213040103232EA4FC7A
S1130890930710002324F4FE8327C4FD2326F4FECB
S11308A00327C4FE9307100063F2E702032784FEC4
S11308B08327C4FEB307F7022324F4FE8327C4FE70
S11308C09387F7FF2326F4FE6FF09FFD832784FEB2
S11308D0138507000324C10213010103678000008C
S11308E0130101FE232E1100232C810013040102A5
S11308F02326A4FE0327C4FE9307100063F2E70235
S11309008327C4FE9387F7FF13850700EFF05FFD8D
S1130910130705008327C4FEB307F7026F008000A6
S113092093071000138507008320C101032481016C
S11309301301010267800000130101FD23268102D7
S113094013040103232EA4FC930720002324F4FEA4
S11309508327C4FD2326F4FE0327C4FE9307100057
S113096063F0E702832784FE939717002324F4FEA1
S11309708327C4FE9387F7FF2326F4FE6FF0DFFD81
S1130980832784FE138507000324C1021301010396
S113099067800000130101FE232E1100232C810027
S11309A0130401022326A4FE0327C4FE93071000A8
S11309B063F0E7028327C4FE9387F7FF13850700DC
S11309C0EFF05FFD93070500939717006F00800019
S11309D093072000138507008320C10103248101AC
S11309E01301010267800000130101FE232E110090
S11309F0232C810013040102232604FE232404FE75
S1130A00232604FE930760002324F4FE032584FEBA
S1130A10EFF01FE72326A4FE0326C4FE832584FEED
S1130A20B7170000138547D2EFF01F86232604FE74
S1130A30930760002324F4FE032584FEEFF05FEAAD
S1130A40930705002326F4FE0326C4FE832584FEB3
S1130A50B7170000138587D4EFF01F83232604FE05
S1130A60930760002324F4FE032584FEEFF0DFECFB
S1130A702326A4FE0326C4FE832584FEB7170000A4
S1130A801385C7D6EFF05F80232604FE930760002A
S1130A902324F4FE032584FEEFF0DFEF9307050023
S1130AA02326F4FE0326C4FE832584FEB717000024
S1130AB01385C7D8EFF04FFD930700001385070097
S1130AC08320C10103248101130101026780000016
S1050AD0000020
S1130AD41000000000000000017A5200017C0101B2
S1130AE41B0D02001C0000001800000068F5FFFF45
S1130AF42800000000440E20448801440C080054DB
S1130B04C8440D021C0000003800000070F5FFFF0B
S1130B142800000000440E20448801440C080054BA
S1130B24C8440D02200000005800000078F5FFFFBF
S1130B345800000000440E30448801440C080002AC
S1130B4444C8440D020000001C0000007C000000A6
S1130B54ACF5FFFF4C00000000440E20448801441F
S1130B640C080078C8440D021C0000009C0000001E
S1130B74D8F5FFFF2C00000000440E2044880144F3
S1130B840C080058C8440D021C000000BC000000FE
S1130B94E4F5FFFF4800000000440E2044880144AB
S1130BA40C080074C8440D0224000000DC0000009A
S1130BB40CF6FFFFC800000000440E504881018871
S1130BC402440C080002ACC144C8440D02000000F5
S1130BD42400000004010000ACF6FFFF70010000D3
S1130BE400440E50488109880A440C082003540127
S1130BF4C144C8440C020000200000002C01000081
S1130C04F4F7FFFF7800000000440E3044880144E8
S1130C140C08000264C8440D020000002000000017
S1130C245001000048F8FFFF9001000000440E301A
S1130C34448801440C0800037C01C8440D020000EC
S1130C442000000074010000B4F9FFFF7C020000DE
S1130C5400440E30448801440C0800036802C8446C
S1130C640D020000200000009801000010FCFFFFAA
S1130C746000000000440E30448801440C08000263
S1130C844CC8440D0200000024000000BC01000014
S1130C944CFCFFFF5800000000440E2048810188EA
S1130CA402440C0800023CC144C8440D0200000084
S1130CB420000000E40100007CFCFFFF5C00000055
S1130CC400440E30448801440C08000248C8440D12
S1130CD4020000002000000008020000B4FCFFFF32
S1130CE45400000000440E204881018802440C088A
S1130CF40078C144C8440D02240000002C02000002
S1130D04E4FCFFFFE800000000440E204881018851
S1130D1402440C080002ECC144C8440D0200000063
S1130D2449746572617469766520466163746F728F
S1130D3469616C206F6620256421203D2025640AA6
S1130D44000000005265637572736976652046611C
S1130D5463746F7269616C206F6620256421203D81
S1130D642025640A00000000497465726174697680
S1130D746520506F776572206F6620325E2564208B
S1130D843D2025640A000000526563757273697618
S1130D946520506F776572206F6620325E2564206B
S1090DA43D2025640A0055
S9030000FC
